:020000040800F2
:10000000A8570220A5020008D3970108BD81010866
:10001000D19701083D2E01081BC401080000000013
:10002000000000000000000000000000E1010008E6
:10003000D9300108000000003D02000815A50108A4
:10004000BF020008BF020008BF020008BF0200088C
:10005000BF020008BF020008BF020008BF0200087C
:10006000BF020008BF020008BF020008BF0200086C
:10007000BF020008BF020008BF020008BF0200085C
:10008000BF020008BF020008BF020008BF0200084C
:10009000BF020008BF020008BF020008BF0200083C
:1000A000BF020008BF020008BF020008BF0200082C
:1000B000BF02000875A60108BF020008BF020008C1
:1000C000BF020008BF020008BF020008BF0200080C
:1000D000BF020008BF020008BF020008BF020008FC
:1000E000BF020008BF020008BF020008BF020008EC
:1000F000BF020008BF020008BF020008BF020008DC
:10010000BF020008BF020008BF020008BF020008CB
:10011000BF020008BF02000881A60108BF02000854
:10012000BF020008BF020008BF020008BF020008AB
:10013000BF020008BF020008BF020008BF0200089B
:10014000BF020008BF020008BF020008D5970108DF
:10015000BF020008BF020008BF020008BF0200087B
:10016000BF020008BF020008BF020008BF0200086B
:10017000BF020008BF020008BF0200080000000024
:10018000BF020008BF020008BF020008BF0200084B
:10019000BF020008BF020008BF020008BF0200083B
:1001A000198B0108BF02000829300108BF020008AE
:1001B000BF020008BF020008BF020008BF0200081B
:1001C000BF020008BF020008DFF810D000F0D8FB23
:1001D00000480047B9D90108AFF30080A8570220B2
:1001E0002D4B19680868B0E8F04F80F30988BFF319
:1001F0006F8F4FF0000080F31188704700000000FF
:1002000008480068006880F308884FF0000080F319
:10021000148862B661B6BFF34F8FBFF36F8F00DFF4
:1002200000BF00BF08ED00E0DFF80C00016841F4FA
:1002300070010160704700BF88ED00E0EFF30980B6
:10024000BFF36F8F144B1A681EF0100F08BF20ED1C
:10025000108A20E9F04F106009B44FF0500072B6D8
:1002600080F31188BFF34F8FBFF36F8F62B61EF01C
:100270003BFA4FF0000080F3118809BC1968086848
:10028000B0E8F04F1EF0100F08BFB0EC108A80F3FA
:100290000988BFF36F8F7047C0000020EFF305801F
:1002A000704700000648804706480047FEE7FEE723
:1002B000FEE7FEE7FEE7FEE7FEE7FEE7FEE7FEE716
:1002C00021A60108C90100082DE9F05F05460020BC
:1002D00092469B4688460646814640241BE02846B7
:1002E00041464746224600F04CFA53465A46C01A49
:1002F000914110D311461846224600F033FA2D1AC8
:1003000067EB01084F4622460120002100F02AFA3F
:1003100017EB00094E41201EA4F10104DFDC484622
:1003200031462A464346BDE8F09F10B5441A0346BD
:10033000944209D28418114403E011F8013D04F8F5
:10034000013D521EF9D210BD40EA0104A40703D0BA
:1003500009E010C9121F10C3042AFAD203E011F8F1
:10036000014B03F8014B521EF9D210BDD2B201E08D
:1003700000F8012B491EFBD270470022F6E710B5AA
:1003800013460A4604461946FFF7F0FF204610BD03
:10039000421E12F8013F002BFBD111F8013B02F87D
:1003A000013B002BF9D17047CAB2401E10F8011F63
:1003B0008A4202D00029F9D100207047421C10F86F
:1003C000011B0029FBD1801A704730B5044600207C
:1003D000034600E05B1C934203D2E05CCD5C401B13
:1003E000F8D030BD034611F8012B00F8012B002A8C
:1003F000F9D1184670472DE9FE4F804681EA030087
:10040000C00F0C46009021F0004123F00045B8EBEE
:100410000200A94105D24046214690461C460B46A3
:10042000024623F00040104347D0270DC7F30A00CF
:10043000C3F30A510290401A019040286BDAC3F3CB
:10044000130040F4801B0098924620B10023D2EBA9
:10045000030A63EB0B0B01985946C0F1400250466A
:1004600000F080F906460D4650465946019A00F0C4
:1004700098F910EB08006141002487EA115284EAE0
:10048000E7731A4340D0009A62B3019A012A4FEAF7
:10049000075215DC001B61EB02014FF0004202EA3B
:1004A0000752CDE90042001C41F5801132462B462F
:1004B00000F0E7F903B0BDE8F08F40462146F9E7C8
:1004C000001B61EB0201001C41F5801300185B4129
:1004D0002018A2F5001747EB030140EAD570B619C2
:1004E0006D4111E06D084FEA360645EAC0754FEAE6
:1004F0000752001B61EB0201001C41F58011490805
:100500004FEA30000019514132462B4603B0BDE896
:10051000F04F00F0A7B90098012240000023D0EB73
:10052000020263EBE073009821464FEAE074B8EBF7
:10053000000061EB0401E9E783F000435BE781F031
:10054000004158E72DE9FE4F81EA030404F000441E
:1005500021F0004100944FF0000B23F0004350EADB
:1005600001045ED052EA03045BD0C3F30A54C1F322
:100570000A552C44A4F2F3340194A0FB0254C1F3B5
:10058000130141F48011C3F3130343F4801301FBFF
:10059000024400FB034E840A970A44EA815447EA66
:1005A0008357A4FB076802958D0A05FB07854FEA70
:1005B000932C04FB0C542705029D4FEA065847EA8A
:1005C0001637B5EB08056EEB070C870E920E47EA5F
:1005D000811742EA8312A7FB0201B6EB0B0164EB21
:1005E00000042B0D43EA0C335E1844EB1C50DA4632
:1005F0005146E7FB0201C5F313044FEA0B3343EA0C
:1006000014534FEA0432019C43EA0603A4F10C049C
:100610000294009CCDE900B400F033F903B0BDE8CA
:10062000F08F00200146F9E72DE9F04D81EA03043F
:1006300004F0004B21F0004514464FF0000A23F06F
:10064000004150EA050220D054EA01021DD0C5F352
:100650000A570246C5F31303C1F31300C1F30A5648
:1006600040F4801543F48013A7EB0608101BD64610
:1006700008F2FD3873EB050002D308F1010801E030
:1006800092185B41B8F1000F03DA00200146BDE883
:10069000F08D00204FF48011064684460EE0171BB3
:1006A00073EB050705D3121B63EB050306434CEA06
:1006B000010C49084FEA300092185B4150EA0107EB
:1006C000EDD152EA030012D082EA040083EA050168
:1006D000084305D0101BAB4106D20122002306E0DF
:1006E00000224FF0004302E06FF0010253101AEBBA
:1006F00006004CEB085110EB0A0041EB0B01BDE882
:10070000F04D00F0AFB8000030B5041E71F10004E8
:1007100004DB4FF00044404264EB0101141E73F10E
:10072000000405DB1C464FF00043524263EB040318
:100730008B4208BF824230BD30B50B4601460020D7
:100740002022012409E021FA02F59D4205D303FA93
:1007500002F5491B04FA02F52844151EA2F1010214
:10076000F1DC30BD202A04DB203A00FA02F100203F
:1007700070479140C2F1200320FA03F319439040DF
:100780007047202A04DB203A21FA02F0002170474A
:1007900021FA02F3D040C2F12002914008431946E9
:1007A0007047202A06DBCB17203A41FA02F043EAD1
:1007B000E07306E041FA02F3D040C2F1200291401A
:1007C00008431946704700000FB4002300B589B0F4
:1007D0000CA900910B996FF00042CB601E4B069361
:1007E0001E4B07930423CDE901321D4A08920246AD
:1007F0006B46002000F070F909B05DF814FB70B58D
:1008000086B006464FF0FF300091CDE9010100208F
:1008100015460C4604903246694604A8FFF7D4FFFB
:1008200002460498211825B108B1084600E0204688
:100830002860049800280DD0002A02DD0098884224
:1008400008D0081B0094CDE901043246694604A88B
:10085000FFF7BAFF06B070BD110D00082F0D00089C
:10086000A509000810B5141E73F1000408DA401C35
:1008700041F1000192185B411A4301D120F00100BF
:1008800010BD2DE9F04D92469B4611B1B1FA81F2AF
:1008900002E0B0FA80F220329046FFF763FF044690
:1008A0000F4640EA0A0041EA0B0153465A46084304
:1008B00013D0114653EA010019D0C8F14002504646
:1008C000FFF75FFF05460E46504659464246FFF782
:1008D00049FF084305D0012004E020463946BDE821
:1008E000F08D0020054346EAE0762C4337430A9812
:1008F0006305E40AA0EB08000022FD0A44EA47541D
:100900000A3002D500200146E9E7010510196941C6
:10091000DDE9084500196941BDE8F04DA2E7C1F3E2
:100920000A52C1F3130140F2FF3341F480119A429D
:1009300002DA00200146704740F233439A42A2F2A5
:10094000334202DC5242FFF71CBFFFF70BBF00002F
:1009500030B5041E71F1000404DB4FF00044404246
:1009600064EB0101141E73F1000405DB1C464FF01B
:100970000043524263EB0403994208BF904230BDEA
:10098000064C074D06E0E06840F0010394E80700DC
:1009900098471034AC42F6D3FFF71AFC207A0208CD
:1009A000407A0208C0B24FF4F05100F0D1B9000013
:1009B0002DE9FF4F087883B09946FF2805D0491CE0
:1009C0002D2804D00024002008E000200BE00124A2
:1009D000F9E700EB800003EB4000491C0B78FF2B8C
:1009E000F7D104B1404200230293147819461D4602
:1009F0002D2C01D02B2C04D1521C2D2C13D00024D3
:100A00000294AA461478FF2C0FD00A25A3FB057880
:100A100001FB05814FF0000C03FB0C11521CE31984
:100A20004AEB0101EEE70124EAE7814453EA0100C1
:100A300002D019F5C87F06DA03980021C0E9001139
:100A400007B0BDE8F08F0025AE4E2F46DFF8B88224
:100A5000184600F091F9CDE90001B9F1000002DA81
:100A6000C9F1000400E004460023A74A1AEB030B77
:100A700042EB045A12E0E00707D02A4633463846D4
:100A80004146FFF75FFD074688462A463346104633
:100A90001946FFF757FD05460E466410002CEAD1B3
:100AA000DDE90001B9F1000F5A46534606DAFFF7B7
:100AB000BBFD3A464346FFF7B7FD05E0FFF742FDB1
:100AC0003A464346FFF73EFD029A0AB181F00041E3
:100AD000039AC2E90001B3E72DE9FF4F1F468DB02D
:100AE000D7E901464FF0FF382E2045464FF0000968
:100AF0000B90B9696D1C0E988847396A8246884701
:100B00000028F6D1BAF1FF3F0AD024F4D064002EB9
:100B100011DDBAF12B0F08D0BAF12D0F0BD102E085
:100B2000404611B08DE744F48064B9696D1C0E989D
:100B300088478246761E6946600501D52D2000E073
:100B40002B208DF8000001F1010B0DF1200809E0C8
:100B5000B9696D1C0E98884782460F9844F400745A
:100B6000761E0560002E02DDBAF1300FF0D00B9931
:100B70008A453ED144F0800406E00F99681CA9F133
:100B8000010944F400740860B9696D1C761E0E9862
:100B9000884782463028F0D02BE00B998A4505D152
:100BA000200603D444F08004761E18E050461CF062
:100BB000DDF908B30DF11301761E44F400748B4582
:100BC00008D2AAF130000BF8010B200607D5A9F1D5
:100BD000010003E0200602D409F101008146A005CE
:100BE00002D50F99681C0860B9696D1C0E9888477A
:100BF0008246002ED1DC53E0002E51DDBAF1650FA4
:100C000002D0BAF1450F4BD1A00549D5B9696D1C89
:100C100024F44074761E0E9888478246002E0CDD20
:100C20002B2804D0BAF12D0F07D144F48074B96990
:100C30006D1C0E9888478246761EE00501D52D2151
:100C400000E02B2108F8011BCDF82C8021E00DF1EC
:100C50002901761E44F4007488450CD2AAF13000B4
:100C600010F0FF0088F8000002D10B99884509D9DF
:100C700008F1010806E0E00501D5244801E042F250
:100C80000F708146B9696D1C0E98884782460F988F
:100C90000560002E04DD50461CF068F90028D6D10E
:100CA000F9690E988847FF208BF8000088F800004B
:100CB0000020069007904B466A4608A906A8FFF751
:100CC00077FEA00502D46FF001002AE714F0240F8C
:100CD0000AD0E00714D1DDE906123868031D3B6035
:100CE0000068C0E900120BE0DDE9060100F050F8F1
:100CF0000146E00704D13868021D3A6000680160CF
:100D000028460EE7000014400000F03FF1D8FFFF36
:100D1000426842B1016811F8013B23B1521EC0E99B
:100D20000012184670470121C160881E7047426852
:100D30005AB1C368016843B983688B4205D0491E24
:100D4000521CC0E90012002070474FF0FF3070477E
:100D50007F2801D9002208E0064A02EB5002C007B2
:100D6000127800D1120902F00F02012090400840D1
:100D700070470000FCF601080EB540F233420292C3
:100D80000022CDE900221346FFF77BFD03B000BD32
:100D900001F0004330B421F0004150EA010206D0D6
:100DA0000A0DA2F56072C1F31301002A02DC30BC07
:100DB00000207047440F44EAC104C100E01830BC71
:100DC00000EBC250AFF300800029A8BF7047401C61
:100DD000490008BF20F00100704710B4B0FA80FC51
:100DE00000FA0CF050EA010404BF10BC704749B18E
:100DF000CCF1200421FA04F411FA0CF118BF0121FE
:100E000021430843A3EB0C01CB1D4FEA00614FEADD
:100E1000102042BF002010BC704700EBC3501044AC
:100E20000029A4BF10BC7047401C490008BF20F037
:100E3000010010BC704770B58C1810F8015B15F0FC
:100E4000070301D110F8013B2A1106D110F8012B3C
:100E500003E010F8016B01F8016B5B1EF9D12B0761
:100E600005D40023521E0DD401F8013BFAE710F817
:100E7000013BCB1A921C03E013F8015B01F8015B04
:100E8000521EF9D5A142D8D3002070BD70B5456877
:100E900082B004460146284608F07EF868B123680F
:100EA0000F2B59D00BDD282B45D0B3F5107F3CD04C
:100EB000112B49D0204608F0F1FC02B070BD0B2B7D
:100EC00020D00E2BF6D1E3681A6859680D2A53D04A
:100ED000202A31D1002928464FF480717DDD08F0A9
:100EE0004BF9284601F026FD02AB846A43F8040D55
:100EF000184601F073FEA207DFD5284601210AF04B
:100F000005F8DAE7284602AD01F014FD0346683023
:100F1000019301F0EDFA55F8040D03216C3001F056
:100F20000DFB284601F05AFEC4E7324B2146284605
:100F30001B689847C1E7E368002BBBD128464FF4F4
:100F4000807108F00DF8B5E72B4B1B68002BB4D06F
:100F5000214628469847B0E7284601F0EBFC0346B7
:100F600002A840F8043D5B6E1C6801F037FE002CBF
:100F7000A3D02846A047A0E70029DDDD4FF480710B
:100F8000284608F0F9F802AC284601F0D3FC866A3E
:100F900044F8040D204601F021FEB10703D50121DC
:100FA000284609F0B3FF4FF48071284607F0D8FFB8
:100FB000284601F0BFFC034620461E8E9C6A019322
:100FC00001F00CFE304604F029FFA3077FF575AF52
:100FD0002846022109F09AFF6FE707F0C1FF284673
:100FE00001F0A8FC034602A89C6A1E8E40F8043D4E
:100FF000E6E700BF74010020E04E02202DE9F04F2B
:10100000B0F90A6087B0B0F90C708B468569164458
:10101000B0F90E801F44B0F910A00446B0F9089052
:101020004C3502F013FFDFF8CCC04FF0000E424603
:10103000CDF800B03946304603955346CDF808C088
:10104000CDF804E008F02EFB804628B905F0C0F981
:10105000404607B0BDE8F08F01F06CFC244F4946D4
:101060000DF11809102205903E1D08F089F959F874
:1010700004ED0FCE0EF134050FC50FCE0FC596E867
:101080000F0085E80F007B6B4846CEF8643001F016
:10109000A5FD7B6B40465B68984705F099F965684C
:1010A00002F0D4FE404601F045FC034604A89C6EC5
:1010B0000493059401F092FD2946484606F0E2FAB1
:1010C0000028C3D0059B9C4209D0404601F032FC69
:1010D000059A034604A89A66049301F07FFD4046F2
:1010E00009F08CFB05F074F9404607B0BDE8F08FBD
:1010F000740100208D0E0008974A816843682DE92D
:10110000F041044688B052F82160122B40D8DFE845
:1011100003F0B03F3F3F3F0A973F3F3F3F3F3F3FD6
:101120003F3F3F3F4300F569002D40F0B580371F3A
:1011300057F8040F04F0EEFD04F1140120690EC904
:1011400028445B1B521B2944013502F0A3FB022DEE
:10115000EED162693169E3690191911CF76813442A
:101160002069A2695B1028440097521B02F08CFA98
:10117000E1696269B0698B1E1144A269019049104E
:1011800020697669521B01312844009602F07CFAEE
:10119000002008B0BDE8F081006801F0CBFB876E4D
:1011A0000490002F00F0D080A368B0F95C80002B81
:1011B00000F0C880032B14BF0023022300EB83033D
:1011C000406D08AC1D6C04F0BDFD284604F0A2FD86
:1011D00006A802F0BBFCB28BBDF8181006A8BDF83B
:1011E0001C301144BDF81A509A1ABDF81E30ADF8E3
:1011F0001810023554F8101D023BADF81C20B1F94F
:101200006020B1F95E10ADF81E30ADF81A5004F050
:10121000D7F8204608AC01F0E1FC022004F0E6FD1E
:10122000384601F087FB06A9424644F80C0D02F04F
:1012300029F9204601F0D2FC002008B0BDE8F08179
:10124000006801F077FB049020680BF0CFF8B8B984
:10125000049B5D6F05B9DD6E04A801F0BFFC00239F
:10126000284621681A4602F003F8002008B0BDE8BD
:10127000F08100680AF0DAF8002008B0BDE8F081DB
:10128000A368002B64D1049A136F002B14BF6C2346
:10129000682313445D68DFE7B268B046C36900277E
:1012A000039271688269029158F804090095616996
:1012B0000190206905F090FD58F8040F04F02AFD14
:1012C000F369A26921696069D21A1944384402F0AD
:1012D000B5FAF369A2692169E069D21A1944C01B01
:1012E00002F0ACFAF369E26961692069D21A194423
:1012F000384402F017FBA069F369E269C01B616919
:101300000137D21A194402F00DFB022FD4D1B06874
:1013100004F000FDF16922696569901CE3690A44E3
:101320005B1A2944013A02F055FBF169A06965692D
:10133000E369821E401A5B1A2944013002F04AFB1D
:10134000F56906E7012339E704A801F047FC1FE728
:10135000049BDD6E80E700BF107002082DE9F04F9E
:10136000446805468BB020460BF040F829460646F7
:10137000204607F011FE002838D02B680F2B60D0D4
:1013800037DC0B2B4AD00E2B55D1002E53D0EB68F7
:101390005A68002A4FDDD3F80080A8F10903192B01
:1013A00006D80121C34A01FA03F31A40002A42D1A8
:1013B000E4B102F04BFD0AAE204601F0BBFA034651
:1013C000876D46F8180D304693F854A0D3F8349042
:1013D000DD6C01F003FC002F00F0E2804146204666
:1013E000B847204609F00AFA04F0F2FF0BB0BDE856
:1013F000F08F40F21312934228D0B3F5107F1AD128
:10140000EB68002B00F09A801A7A002A52D0002C48
:1014100041D12046012109F079FD0CE020460AACBB
:1014200001F088FA0346343044F8043D01F060F8D6
:10143000204601F0D3FB284608F030FA0BB0BDE897
:10144000F08F204601210FF0F3FECFE720460AAED1
:1014500009F08CFE204601F06DFA034646F8040DB3
:10146000304693F8562082F0040283F8562001F0AB
:10147000B5FB002120460FF0DBFE204601F05AFAB2
:1014800003460021D0F88400099309F03BFE304662
:1014900001F0A4FBCFE71E6802F0D8FC204601F063
:1014A00049FA436B079053B907A801F097FB04F082
:1014B0008FFFAEE72046022109F028FDBBE7184662
:1014C00001F038FA079B0690986E04F03BFC8046CA
:1014D000204608F095FD0746069802F095FB079A0E
:1014E0008146136E03F00303012B00F0E781022B0A
:1014F00040F0DD813B1A013348BF0133A6EB6306A0
:10150000069805F001FF002E0746C0F2F881B145AC
:1015100019DA204601F00EFA436B0890002B40F0D8
:10152000D38108A801F05AFB06A801F057FB4046FA
:1015300004F008FC204609F061F9B5E720460321D4
:1015400009F0E4FC77E702463146069805F05CFEB8
:101550000646204601F0EEF9436B0890002BE0D0E0
:10156000184626EAE67601F0E5F9099005F0CCFE8A
:101570000899B1F9383091F85470CA6C002F18BF2F
:10158000013BB342A8BF33469842A8BF18468242E7
:1015900000D0C864002309A80B6501F01FFBC0E759
:1015A000A8F10803162B00F2E680DFE813F0A00094
:1015B000E400E400E400E400E400E400E400BC0033
:1015C000850076004800E400E400E400E400E40064
:1015D000E400E400E400E40038001700204601F0D5
:1015E000A9F903460AA85D6B40F8083DDF6C01F0DD
:1015F000F5FA002D3FF4F5AE284601F09BF9394687
:101600000646099004F0BAFD05463046FEF7D6FEC0
:101610008542C0F0E28109A801F0E0FAE1E6204647
:1016200001F088F9BAF1010F0346049040F0878178
:10163000002280F85420304601F0D0FAD1E6B9F10A
:10164000000F3FF4CEAE484601F074F90646294635
:10165000099004F093FD0644304604F03BFD00235E
:1016600005468DF82230ADF82030013D04F052FDE2
:101670000746ADB2284604F04DFD8742CBD129463E
:1016800008A804F015FD08A93A463046FEF74DFEBD
:101690000521204609F03AFCBDE7204601F04AF951
:1016A000436B0890002B40F0A88108A801F096FA3F
:1016B00097E600BF13000403B9F1000F3FF491AEA9
:1016C000484601F037F906462946099004F056FDD0
:1016D0000644304604F0FEFC002305468DF8223017
:1016E000ADF82030013504F015FD0746C1E7002DA7
:1016F0003FF477AE204601F01DF9436B0890002BB4
:1017000040F0948108A801F069FA204601F012F92E
:10171000034608A85D6BDF6C089301F05FFA002DAB
:101720003FF45FAE68E7204601F004F9436B089090
:10173000002BBAD0184601F0FDF8099005F0E4FD41
:10174000089A6B1EB2F9381023EAE37392F85460DA
:10175000D56C002E18BF01398B42A8BF0B469842AA
:10176000A8BF184600238542136518BFD06409A896
:1017700001F034FA99E7B8F11F0F7FF732AEBAF1F2
:10178000000F40F00881204601F0D4F8B0F938305D
:1017900081460590002B07DD406B002840F06B81EF
:1017A00007469F4280F263811FFA88F30DF12809F2
:1017B0001E46019359F8143DDB6C4846039301F033
:1017C0000DFA304604F0A6FC8346204601F0B2F83C
:1017D000436B0690002B40F08F811E460AA80BEB4E
:1017E000060350F8102D0133568F9E1B01F0F6F9B9
:1017F000002E40F37E812046103601F09BF8034610
:10180000B0F83A800AAFD3F834A0B04447F8080DD6
:10181000384601F0E3F94146504601F09FF8029046
:1018200000283FF4DEADBAF1000F00F0548109AE9C
:10183000204601F07FF8029A034638460893A3F841
:101840003A805A6301F0CAF9204601F073F8034662
:101850004846D3F83480059301F0C0F9404601F0C2
:1018600069F880460399099004F088FC804440465A
:10187000FEF7A4FD4146421C08EB0B00FEF755FDA8
:101880000199404604F014FC304601F0A7F9052107
:10189000204609F03BFB204601F04CF8436B0890D2
:1018A000002B40F0F680384601F098F999E5536E28
:1018B000D16A5A1C0B681344F61A21E6536E3F1A7C
:1018C0000133FB1AF61A1BE6184627EAE77701F000
:1018D00031F8099005F018FD0899B1F9383091F800
:1018E0005460CA6C002E18BF013BBB42A8BF3B46E8
:1018F0009842A8BF184682427FF44BAE4AE6204683
:1019000001F018F8436B0890002B3FF40AAE18461C
:1019100001F010F8099005F0F7FC0899B1F938309A
:1019200091F85460CA6C002E18BF013B03EAE373C0
:101930009842A8BF184682427FF42BAE2AE60122C5
:10194000204683F8542000F0F5FF436B0890F3B174
:10195000184625EAE57500F0EDFF099005F0D4FC86
:10196000089AB2F9383092F85470D16C002F18BF31
:10197000013BAB42A8BF2B469842A8BF18460023A4
:101980008142136518BFD06409A801F027F908A89F
:1019900001F024F94FE60AAF204600F0CBFF466B7A
:1019A000034647F8080D3846D3F84C9001F016F975
:1019B000002E3FF4E8AE304600F0BCFF4946074633
:1019C000099004F0DBFB06463846FEF7F7FC86423A
:1019D0001CD309A801F002F9D5E63544284604F0E5
:1019E00089FB29182846FEF7FDFC09A801F0F6F846
:1019F0000521204609F08AFAF3E4184600F09AFF20
:101A0000099005F081FC089A6B1C9BE63E44304629
:101A100004F070FB31183046FEF7E4FC09A801F031
:101A2000DDF80521204609F071FAACE6184600F011
:101A300081FF099005F068FC089A6B1EB2F9381016
:101A400092F8546023EAE373D56C002E18BF013975
:101A50008B42A8BF0B469842A8BF18460023854278
:101A6000136518BFD06409A801F0B8F84AE605A8C4
:101A700001F0B4F8B5E40AAE00F05CFF46F8040DDE
:101A800005F042FC0746304601F0A8F8B9F93830B5
:101A900087E6184600F04EFF099005F035FC0899DE
:101AA0006B1C91F854E0B1F9385023EAE373CA6C27
:101AB000BEF1000F18BF013DAB42A8BF2B469842B4
:101AC000A8BF1846002390420B6518BFC864304673
:101AD00001F084F8E7E600F02DFF0AAE0D4B514609
:101AE00046F8040D42461B689847304601F076F8E8
:101AF0009EE609AE08AFA7E618460AAF00F01AFF47
:101B000047F80C0DFEF75AFC0646384601F066F819
:101B100064E600BF100200202DE9F04FB0F90C7010
:101B20008BB0B0F90A608B4685691F44B0F9083064
:101B30001644B0F90EA00446B0F910906035059334
:101B4000D0F8148002F082F9DFF83CE14FF4805CB9
:101B5000CDF800B03946304603954B465246CDF895
:101B600008E0CDF804C007F09DFD30B9002704F06F
:101B70002FFC38460BB0BDE8F08F074600F0DAFEC8
:101B800005991022079007F0FBFB3D4E4FF0010C2A
:101B9000DDF81CE00FCE0EF160050FC50FCED6F8B4
:101BA000009018F1010618BF0126B8F1000F0FC50B
:101BB000C5F800908EF855C08EF888605BDD0FFA8E
:101BC00088F808EB0C050023AEF8388007A80AAEA9
:101BD000AEF83A30CEF8343001F000F8384600F074
:101BE000A9FE0346428FD3F83480154446F8080D09
:101BF000304600F0F3FF2946404600F0AFFE824633
:101C0000A8B3B8F1000F23D00DF12409384600F035
:101C100091FE034630465D87C3F834A0089300F078
:101C2000DDFF04F0D5FB648A02F010F9384600F0BD
:101C300081FE099018B10466384608F0DFFD484679
:101C400000F0CCFF04F0C4FB38460BB0BDE8F08FC9
:101C500000F070FE0DF128090A4B414649F8040DC9
:101C60002A461B689847484600F0B8FFCEE738463A
:101C700007F044FE7AE709254FF00808A3E700BF04
:101C8000AC010020100200205D13000800B970476D
:101C900070B5044682B00D4602F0D8F8204602AE78
:101CA00000F048FE03468566204646F8043D08F0ED
:101CB000A5FD304600F092FF04F08AFB02B070BD33
:101CC00000B97047AFF300802DE9F04F04468BB0A8
:101CD0000F4602F0BBF80AAE204600F02BFE02468B
:101CE000456B46F8180D3046B2F9388000F076FFA3
:101CF000002F00F0AA80002D7FD1A9463846454626
:101D000005F002FB8045A8BF05463846294604F089
:101D100035FA00F10108204600F00CFE436BC9EBD8
:101D2000080A0690002B59D19946D144438F06A842
:101D300009F10109C3EB090900F050FFB9F1000FE7
:101D400025DD204609F1100900F0F4FD0346428F1D
:101D50000DF1280AD3F834B091444AF8080D5046E2
:101D600000F03CFF4946584600F0F8FD019068B38A
:101D7000BBF1000F56D0204600F0DCFD019B02466F
:101D80005046A2F83A905363089200F027FF20468D
:101D900000F0D0FD0346406B049300F0CBFD324BC6
:101DA0004246394605901B689847059A002390449F
:101DB00008F8013C049BB3F93820DD64AA422AD01C
:101DC00005A800F00BFF304600F008FF204608F0A1
:101DD00015FD04F0FDFA0BB0BDE8F08F18460DF1CB
:101DE000280B00F0A7FD4BF80C0DFEF7E7FA814633
:101DF000584600F0F3FE069897E728460AAD00F033
:101E000099FD45F8140DFEF7D9FA00F101092846AD
:101E100000F0E4FE72E793F85420012AD0D1013D8E
:101E2000DD64CDE700F086FD0AABDFF840E05946FF
:101E300043F8040D4A46DEF800B002930393D847F6
:101E4000029B184600F0CAFE95E7204600F072FD9E
:101E500003463430049300F04BFB049B30465F870D
:101E6000DF6400F0BBFEB1E70C020020100200208E
:101E700000B9704730B5044683B00D4601F0E6FF67
:101E8000204600F057FD019018B10566204608F085
:101E9000B5FC01A800F0A2FE04F09AFA03B030BD30
:101EA00000B9704770B5044682B016460D4601F081
:101EB000CDFF204600F03EFD019008B1022D06D96D
:101EC00001A800F08BFE04F083FA02B070BD00EBB5
:101ED00085012046CE6608F091FCF1E7204B70B5F5
:101EE0001E6801F0B3FF1F4C0025304606F082FC4F
:101EF00004F06EFA1C4B1E6801F0A8FF304606F095
:101F0000B3FC04F065FA01F0A1FF012223681A7600
:101F100004F05EFA01F09AFF23689D8504F058FAF8
:101F200001F094FF23685D8504F052FA01F08EFF02
:101F3000284606F0CBFC04F04BFA0C4B1D6801F070
:101F400085FF236805B1DD6104F042FA01F07EFFF0
:101F5000236800229A76BDE8704004F039BA00BFC9
:101F60005C01002060010020580100205401002085
:101F7000014B83E8030070477C4D0220014B83E84E
:101F800003007047844D0220014B83E80300704733
:101F90008C4D0220704700BF704700BF2DE9F04F05
:101FA0005C4E8DB03368DA69B3F92250D469B4F865
:101FB0000CB0834500F29780E1898142C0F09380A4
:101FC0002168CBEB000B08914FF0FF310A91BBF178
:101FD000FF3F00F0828092F81880A27CB3F92A10AB
:101FE000B3F9249018FB02F3084607911F4694F8B2
:101FF00010A006F06BFCD6F800E008994346DEF826
:1020000038C05246099007FB0B10DEF81CE00B9716
:10201000012704904946CDF814C0284694F812C010
:102020000297CDF80CC09EF81BC0DFF8E8B0CDF8E1
:1020300004C09EF81AE0CDF800E005F087FD0A9F85
:102040007B1C25D0079941F0020006F03FFCDBF82D
:1020500000100B9A43460898D1F838C002FB0700DD
:10206000D1F81CE00127CDF814C00490524694F832
:1020700012C0494602972846CDF80CC09EF81BC0F6
:10208000CDF804C09EF81AE0CDF800E005F05EFD42
:102090003368DFF88080DB695A7E1B7E9A4215D94F
:1020A000079B022B12D083F0040006F00FFCD8F837
:1020B00000302846DB691F7ED97E9A7E5B7E07FB57
:1020C00001910AFB02524B4405F048FF9DF82400A1
:1020D00006F0FCFB3368B3F92250627C15445D8442
:1020E0000DB0BDE8F08FA1680029F6D00F88B84286
:1020F000F3D3B1F802E08645EFD3C01B49686768A7
:1021000080B2089701EB800731F920B0B7F90210CF
:102110000A915CE760010020044B1B68DB69DB6906
:1021200009B11A7C0A60587C704700BF600100202A
:1021300002230B80704700BFC3699A898A4202D884
:10214000DA898A4211D2986818B10388994201D27B
:102150000020704742888A42FAD3C91A436833F88C
:102160002100C043C0F3C03070470120704700BF5A
:102170002DE9F04F3A4D89B02B68DA69B3F92A900E
:10218000D36943B11A88904202D35988814205D25B
:102190009B68002BF6D109B0BDE8F08F841AD3F804
:1021A0000480484608EBC40696F802B006F08EFBA1
:1021B0008246286818F834204FF0010EC769D0F81D
:1021C00038C0B0F92410B0F922003B7E0790CDF85A
:1021D00014C07068CDF80CB00490CDF808E097F802
:1021E0001BE00798CDF804E0BF7E009705F0AEFC39
:1021F0002B68DA69537E177EBB4223D9B9F1020FEF
:1022000007931FD092F81BB001F0A4FC814601F0A7
:102210006BFC03F07FFD124B18F834E01868079B45
:10222000C169B0F92240CA7EB0F9241020460EFBE5
:1022300002420BFB03130BFB071105F08FFE484610
:1022400003F068FD504606F041FB2B687178D869B1
:102250005A8C807E00FB01225A8409B0BDE8F08FC1
:1022600060010020114B1B6870B4DD69EB6943B15C
:102270001A88904202D35C88844205D29B68002B66
:10228000F6D1184670BC7047821A5E68AC7E06EBC9
:10229000C2035B7813FB04F00029F3D016F8323048
:1022A00014FB03F370BC0B60704700BF600100209B
:1022B00001230B80704700BFC06950B103888B4277
:1022C00002D843888B4203D280680028F6D1704739
:1022D000012070472DE9F047244F3D68002D3FDD78
:1022E000234EC5EB4515DFF88C804FF0000A3468AB
:1022F000D8F8009004EB85050C340C35A4F10803E4
:10230000742249461846FEF710F8221F2063A06386
:1023100044F80CAC6263E4607C34A542EED1002446
:10232000254603E082B13A68954213DA11F05AF873
:10233000336801351A5919197C349042F2D10431AD
:10234000C8F80010BDE8F08708600431C8F8001034
:10235000BDE8F08719460431C8F80010BDE8F087E1
:10236000034BDFF810801968E9E700BFF80100208F
:102370009C4F022060010020F8B5184F184B3846DA
:10238000184E40F80C3F05F069F93468C4EB44146A
:10239000A400204600F004F9134B224600211B68DC
:1023A000386098474FF0FF33736011F021F83368BD
:1023B000002B0FDD0024254603E062B133689D4207
:1023C00008DA11F00FF83B6801351A5923447C34C0
:1023D0009042F2D1F8BD1860F8BD00BF9C4F0220BA
:1023E00045110108F80100201002002000B97047D3
:1023F00010B5044601F02AFD20460AF0EBFB044626
:1024000003F0E6FF204610BDF8B5054601F01EFDBD
:1024100025B9002403F0DCFF2046F8BD01F016FDCD
:1024200028460AF0D7FB044603F0D2FF002CF0D078
:10243000144E2A46144F0021F069736B013003EBF0
:10244000C405F06113F83400013003F834006D68FE
:102450003B6805F1080098472968726B12F8313023
:10246000012B01D9F06930B9013B02F8313003F09A
:10247000AFFF2046F8BD0138013BF06102F8313072
:10248000F5E700BF985002201002002021F0030160
:10249000014B83E803007047944D022000B9704758
:1024A00070B50D4C054601F0D1FCEE00636B334472
:1024B000596848680AF0E0F96368626B0021606A55
:1024C000013316446360706002F835106562BDE840
:1024D000704003F07DBF00BF9850022028B1034A2E
:1024E000D36B036003B15860D063704798500220EB
:1024F000F8B5054601F0AAFC2C68B4B10E4E01F007
:10250000A5FCE700736B3B44596848680AF0B4F9CE
:102510007368726B0020716A0133174473607960CD
:1025200002F83400746203F053FF00232B60BDE80F
:10253000F84003F04DBF00BF9850022000292BDD6A
:102540002DE9F04700258A46041F144FA94601F0E3
:102550007DFC54F8046F0135B6B101F077FC7B6B5C
:102560004FEAC6084344596848680AF085F97B6811
:10257000796B7A6A013388447B60C8F8042001F8DB
:1025800036907E6203F024FFC4F8009003F020FF31
:10259000AA45DCD1BDE8F087704700BF9850022003
:1025A000F8B58B4E044696F82830002B2FD0033414
:1025B000356CF26B24F003040434A54238BF254681
:1025C00062B152F8043C14469D4204D114E054F820
:1025D000043C9D4210D02468002CF8D1F368B46B01
:1025E0001C4454F8041C611A0B68002B68D14B681A
:1025F0009D426FDD002408E023680BB161685960DB
:10260000616801B10B60A24256D02046F8BD714B03
:1026100001219A6886F8281058680AB982089A60D9
:102620005A27102220254FF0400E3762802732644F
:102630004FF48072B5644FF400751968C6F850E025
:102640004FF4806EB7654FF4006732664FF48052E6
:10265000B5664FF40055A1F11403C6F870E0B767F2
:102660004FF4804EC6F880204FF40047C6F88850DB
:102670004FF480324FF400350344C6F890E04FF435
:10268000802EC6F898704FF40027C6F8A0200222CA
:10269000C6F8A8500125B1637363C6F8B0E0326193
:1026A000F060C6F8B8705D60756275600AF0E4F8B5
:1026B0000CF028FF35637AE723682046F363F8BD02
:1026C00000200FF0E1F854F8041C611A0B68002B8D
:1026D00090D18CE7581BD6F8B8703D4A041DBB4218
:1026E0000C4472D2D2F8B070BB426CD2D2F8A8704F
:1026F000BB4266D2D2F8A070BB4260D2D2F89870CA
:102700009F425AD9D2F89070BB4254D2D2F8887006
:10271000BB424ED2D2F88070BB4248D2926F9342F5
:1027200043D2376F2A4ABB423DD2976EBB4238D262
:10273000176EBB4233D2976DBB422ED2176DBB4290
:1027400029D2976CBB4224D2126C93420CD2F2680D
:102750007369521B2B44F260736110B944F8045C36
:1027600053E70AF089F8F9E700223768D1F808E062
:10277000FF1ACB683760BEF1000F01D0CEF80430ED
:1027800013B1C3F800E0E2E706EBC202C2F844E08E
:10279000DDE70122E9E70222E7E70322E5E7042279
:1027A000E3E70522E1E70622DFE70722DDE708226B
:1027B000DBE70922D9E70A22D7E70B22D5E70C226B
:1027C000D3E70D22D1E70E22CFE70F22CDE700BFDE
:1027D00098500220944D0220F8B54A4C94F82830C5
:1027E000002B3DD0D4F8BC30464A3BBBD2F8B430C5
:1027F00023BBD2F8AC300BBBD2F8A430F3B9D2F87B
:102800009C30DBB9D2F89430C3B9D2F88C30ABB974
:10281000D2F8843093B9D36F83B9536F73B9E36E31
:1028200063B9536E53B9D36D43B9536D33B9D36C98
:1028300023B9536C13B96FF00B00F8BD9B68002BE4
:10284000F9D0002201E09B6843B1596810469142DB
:1028500001D90A4608469B68002BF4D10C38F8BD14
:10286000294B01219A6884F8281058680AB982080F
:102870009A605A261022202540272662802622644C
:102880004FF48072A5644FF40075196827654FF402
:102890008067A6654FF4006622664FF48052A566F5
:1028A0004FF40055A1F114032767A6674FF4804742
:1028B000C4F880204FF40046C4F888504FF48032AA
:1028C0004FF400350344C4F890704FF48027C4F8E7
:1028D00098604FF40026C4F8A0200222C4F8A85043
:1028E0000125A16363632261E060C4F8B070C4F89D
:1028F000B8605D606562656009F0BEFF0CF002FEC5
:1029000025636FE798500220944D022030B1044BAC
:102910005B6B03EBC000436858680C38704700BF1E
:1029200098500220024A936901339361704700BFB7
:1029300098500220084AD169536B013110B4D1611B
:1029400003EBC00413F83020013203F83020606834
:102950005DF8044B083070479850022009B90846CA
:1029600070472DE9F8438846064601F06FFA404665
:102970000AF030F9054603F02BFD002D66D0002E3D
:1029800064D0344CF700636B3B445B685B68A3F135
:102990000C008045A8BF804601F058FA636BE169DE
:1029A000424613F8350003EBC508023103EB070C70
:1029B0000130DFF8A4E003F83500D8F80480E161C5
:1029C00013F8361008F10800013103F83610DCF86E
:1029D0000490DEF8003009F108019847D8F800109B
:1029E000636B13F83120012A03D9E06908B101387B
:1029F000E061013A03F83120D9F8001013F83120D2
:102A0000012A06D9E069DFF84CE010B10138CEF8B0
:102A10001C00013A03F8312001F018FA636B3B44C3
:102A20005968486809F028FF6368626B0020616A92
:102A3000013317446360796002F83600666203F080
:102A4000C7FC03F0C5FC2846BDE8F8832846BDE86E
:102A5000F88300BF985002200C020020F8B5584CB3
:102A600001F0F4F994F82830002B57D0D4F8BC309A
:102A7000534A9BBBD2F8B43083BBD2F8AC306BBBAB
:102A8000D2F8A43053BBD2F89C303BBBD2F8943080
:102A900023BBD2F88C300BBBD2F88430F3B9D36FA0
:102AA000E3B9536FD3B9E36EC3B9536EB3B9D36D02
:102AB000A3B9536D93B9D36C83B9536C73B96FF0E9
:102AC0000B034049DA1781FB0313C2EB6313246A3B
:102AD00004FB03F403F07CFC2046F8BD9B68002B4C
:102AE000F5D0002201E09B6843B15968104691423D
:102AF00001D90A4608469B68002BF4D10C38B0F582
:102B0000800F0346DDD8226A2E4B02FB00F0A3FBA8
:102B100000235C0903F05CFC2046F8BD2A4B012130
:102B20009A6884F8281058680AB982089A605A2668
:102B30001022202540272662802622644FF48072CE
:102B4000A5644FF40075196827654FF48067A66582
:102B50004FF4006622664FF48052A5664FF400558C
:102B6000A1F114032767A6674FF48047C4F88020BB
:102B70004FF40046C4F888504FF480324FF40035CB
:102B80000344C4F890704FF48027C4F898604FF461
:102B90000026C4F8A0200222C4F8A8500125A16391
:102BA00063632261E060C4F8B070C4F8B8605D602F
:102BB0006562656009F060FE0CF0A4FC256355E7D2
:102BC000985002201F85EB51944D0220024A9369D0
:102BD000013B9361704700BF9850022003680B4A85
:102BE00030B4044653F8085C506B10F83530012BB4
:102BF00003D9D16909B10139D1610022013B00F843
:102C000035301046226030BC704700BF985002201B
:102C1000034B5B6B03EBC00040680830704700BF9C
:102C2000985002202DE9F04114460646884601F0EE
:102C30000DF9204600F09AFFE8B9A7001B4D3B199B
:102C400005EB8303DA68B24206D11B69434503D121
:102C5000BDE8F04103F0BCBB3B1905EB83035869A9
:102C6000D0B93C4405EB8404E660C4F81080BDE8AC
:102C7000F04103F0ADBB0D4B04EB840403EB840483
:102C800063689A685968C2EB0802711A03F07EF80B
:102C9000BDE8F04103F09CBB5B689A685968C2EBE1
:102CA0000802711A02F0D4FCDBE700BF14500220C6
:102CB000C3B2CAB29A1A92B210B414B2002C1EDB7C
:102CC000C1F30722C0F307239B1A9BB21AB2002A52
:102CD00012DB090C02FB02F2C1EB104104FB0420E1
:102CE00089B20CB2002C01DA49420CB2A1B25DF8F3
:102CF000044B01FB010070475B421AB2E9E7524204
:102D000014B2DDE700212DE9F041084682B000F061
:102D1000C7FF184F01F09AF8042005F0D7FD164BB5
:102D200043F6FF763D461B69804634466846DA6CBA
:102D30001B6D174416441D441C44ADF80070ADF8DB
:102D40000460ADF80250ADF8064008F059FF48B1F4
:102D5000234632462946384605F000F908F0F2FDD0
:102D60000028F5D1404605F0B1FD03F031FB02B07B
:102D7000BDE8F08101C0FFFF500100202DE9F041C6
:102D800082B016461C4607460D4601F05FF8042047
:102D900005F09CFD134B804668461B69DA6C1B6D81
:102DA000174416441D441C44ADF80070ADF804608F
:102DB000ADF80250ADF8064008F022FF48B12346B6
:102DC00032462946384605F0C9F808F0BBFD002810
:102DD000F5D1404605F07AFD03F0FAFA02B0BDE8FD
:102DE000F08100BF500100202DE9F04182B0B0F920
:102DF0000070B0F90260B0F90450B0F9064001F07B
:102E000025F8042005F062FD134B804668461B69D7
:102E1000DA6C1B6D174415441E441C44ADF8007059
:102E2000ADF80450ADF80260ADF8064008F0E8FED9
:102E300048B123462A463146384605F08FF808F057
:102E400081FD0028F5D1404605F040FD03F0C0FAB1
:102E500002B0BDE8F08100BF500100202DE9F0472D
:102E6000044682B00D461646002B37D09A4600968F
:102E700051460B9B204626680A9AB047074618B968
:102E8000384602B0BDE8F08706F0DAFF618A804676
:102E9000384606F071F9013D384608F033FB4046EC
:102EA00008F030FB002D1DDD4FF0000903E008F0B5
:102EB00029FB013D16D054F81C6F0023CDF800907B
:102EC000414620461A46B04706460028EFD138460C
:102ED00006F014FD304602B0BDE8F08706F0BEFFF4
:102EE0008246C4E740461D2108F086F9BAF1FF3F4B
:102EF000C6D000F0ABFF07F037F860B9BA4502D092
:102F0000384608F013FA03F063FA384602B0BDE819
:102F1000F0870028F4D0FFF77BFE80698742F8D164
:102F2000F1E700BF012B17DC2DE9F04107461C201B
:102F300090460D461E46FFF733FB0446D0B16DB1F7
:102F4000056100232046A661A4F81480E760236091
:102F50006360A360BDE8F08100207047074B53F821
:102F600026200AB9EDE71A461368002BFBD1136936
:102F70002361E6E70020BDE8F08100BF7451022024
:102F8000012B3BDC2DE9F84381461C2090460F467F
:102F90001E46FFF705FB054600287FD0414A002F5B
:102FA00031D00023DFF804E152F8264003609EF898
:102FB000001007618E428661A0F81480C0F80C9062
:102FC0004360836002DB731C8EF80030002C5DD000
:102FD00021464C68002CFBD1D9F80000CB681B6857
:102FE00083422CDD09680029F8D148B92E4B1636EA
:102FF00028461A6842F82650BDE8F883002070473A
:103000002846BDE8F88352F82610002930D008463B
:1030100000E018460368002BFBD10069DFF88CE064
:103020002B6028619EF80000AE618642A5F81480EE
:10303000C5F80C906B60AB60CBDB0C46C3E70AD0E5
:103040004B6843B31D606B608D4214BF0B46002379
:103050004D602B60C9E7B8F1010FF1D104E0DC68E5
:10306000194623688342EBDB0B68002BF7D1E7E7B7
:10307000DFF838E001609EF8003086619E42A0F8DB
:103080001480C0F80C9041608160D6DA42F8265076
:10309000D9F80000A9E742F82650D5E70020BDE89E
:1030A000F88300BF74510220600100206D5102209E
:1030B000FFF714BA00283DD070B48469012C03DDF9
:1030C0000123184670BC70471F4B1A78944221DACE
:1030D0001E4D55F824300BB932E013465A68002AC9
:1030E000FBD1C268116802E01B68002BE8D0DA68E7
:1030F00012689142F8DB10D05A68F2B11060426059
:10310000984214BF1A4600225860002302601846F5
:1031100070BC7047621C1A70DAE7828A012AEBD110
:1031200004E0D668134632689142E5DC1A68002A4A
:10313000F7D1E1E701231846704745F82400DFE79F
:1031400045F82400BDE700BF6D51022074510220F4
:1031500000284DD02DE9F041DFF89CE0254F9EF886
:103160000060BC4601E028463DB384690568012C37
:10317000F9DCB44201DB661CF6B257F824300BB917
:1031800033E013465A68002AFBD1C268116802E096
:103190001B68002BE7D0DA6812688A42F8DC10D08E
:1031A0005A68A2B110604260984214BF1A460022C9
:1031B000586002602846002DD7D18EF80060BDE827
:1031C000F081828A012A0CD05A68002AEAD147F895
:1031D0002400E9E7D2F80C801346D8F800208A4290
:1031E000DEDB1A68002AF5D1DAE74CF82400BAE7EA
:1031F000704700BF745102206D5102200F4A81694F
:1032000052F8213098420AD042680AB1036813602C
:10321000036803B15A60002303604360704703688A
:1032200042F821302BB100225A604268002AEED1C8
:10323000F0E74268002AEAD1EDE700BF74510220AE
:103240000020704701280EDC084B53F8200058B1CD
:10325000C3681B681BB908E0C3681B6823B100681A
:103260000028F9D170470020704770477451022040
:1032700000B970472DE9F04182B01E4615460C4654
:103280000746FFF757FB02AB026843F8040D1846E8
:10329000D2F80080FFF7A2FC33462A462146384682
:1032A000C04702B0BDE8F0812DE9F843074610F0B1
:1032B0009BF8DFF86C90074410F096F8DFF8648014
:1032C0003E1A002E22DD00F057FBD9F800309E4256
:1032D000A8BF1E4600F0BAFDD8F80040FFF722FB59
:1032E000B4B1254603F074F8013DFBD1304610F02F
:1032F00077F800F0ABFD013CFBD1FFF767FC03F072
:1033000067F810F071F83E1A002EDCDCBDE8F88397
:10331000304610F065F8FFF759FC03F059F8F0E774
:1033200064010020A04F02202DE9F04F4A4D83B0E8
:10333000044600F08BFD00F02FFC2B680646B3F925
:10334000228000F079FC2B681FFA80F99A8CC9EB77
:10335000020212B29A84217800294FD0B6B22F46C9
:1033600047F6FF71204603F0A7FF0146834620463B
:1033700003F062FF29688B8D03F00303012B5AD001
:10338000022B5CD01FFA80FA4FF0000E4B8C0AF132
:10339000FF3CB1F92420CEEB0303ADF80220013A43
:1033A0009BB2B0186A460FFA83FE6344ADF806007C
:1033B0002046A1F822E05946ADF800E0ADF804300F
:1033C00003F0A4FA2B682046BDF8022059469A84DF
:1033D00002F0D4FE235C04440A2B1BD00D2B19D021
:1033E000BDF800003B688244A3F822A022781AB1FD
:1033F00062780134002AB3D1B3F92420998D914425
:1034000021F00302A3F824909A8502F0E1FF03B0B3
:10341000BDE8F08F2B689A8D02F00302013A012A71
:1034200016D8A3F8228022780A2AE0D19A8C324456
:103430009A842278DBE71FFA80FEF246A6E700288E
:1034400003461FFA80FAB8BF431CC3F34F0E9DE733
:103450001A8C5A84E7E700BF6001002070B50E4661
:103460001546044600F0F2FC054B1B685E849D8403
:1034700014B12046FFF758FFBDE8704002F0A8BF26
:103480006001002020B3F0B50C4683B00546164617
:1034900000F0DCFCD4B1204608F024F8074638B12F
:1034A00002462146684603F07FFF684608F01AF896
:1034B0003246214647F6FF73284603F089FA38461C
:1034C00008F010F802F084FF03B0F0BD2746EFE7E4
:1034D000704700BF08B100F001B870472DE9F04F08
:1034E00089468BB01546044603921F4600F0AEFC99
:1034F000B9F90030B9F904100193CE1AB9F90630C0
:103500000291B9F902B00136059300F045FB15F0C0
:103510000C0A049076D11FFA80FA484607F0E2FFC1
:1035200002460490A8B10199002506A82B4661F334
:103530000F0502996BF31F4561F30F03059906957B
:1035400061F31F434946079303F02EFF06A807F0D7
:10355000C9FF039B1FFA8BF503F003080AF1FF3341
:1035600003934346B0461E4615E0022E34D01EB9E2
:10357000B9F80030ADF820302046594608AA554425
:1035800003F0C4F920463A46414604F0E7F8044403
:10359000ADB2237873B33A464146204604F040F971
:1035A000BDF80420039B8346ADF820202046EB188D
:1035B000BDF808205946ADF82250ADF82420ADF8EA
:1035C000263003F039FE012ECFD1B9F80430013393
:1035D000181AADF82000CFE7B9F90010B9F9043096
:1035E0005B1A181A013048BF013001EB6000ADF8DA
:1035F0002000C1E7049807F075FF02F0E9FE0BB068
:10360000BDE8F08F254600F021FC3A4631462846B9
:103610004FF0000804F0A2F848B105443A4631469C
:1036200008F10108284604F099F80028F5D102F0C5
:10363000CFFEBAF1080F08D0BAF10C0F10D0BAF1D2
:10364000040F02D0BDF810A067E7BDF810A0059BDD
:1036500018FB0AF85D1CC8EB05050FFA85FB5CE753
:10366000059B049ACBEB0303BDF810A0013308FBC4
:103670001238B8F1000FB8BF08F101080BEB68056C
:103680000FFA85FB49E700BF2DE9F04F91B0804666
:103690001E460F46914600F0D9FB674B0EA81C68EA
:1036A000E56C246D05EB080305EB0902E1193444D0
:1036B0000793089202910194ADF83830ADF83C20A0
:1036C000ADF83A10ADF83E4008F09AFA002800F044
:1036D0009780019B029A1A99C2EB030B9DF8682010
:1036E000C1F307241B99BBF1000F5B46C1F3072709
:1036F0001A99B8BF0BF101030BFB02FEC1F307409F
:103700001B995B109DF86CC0C1F307461A9903EB37
:103710000E05090E0A950BFB04353C1B03940BFBAD
:103720000034301A0BFB01335E460B950D931B9B47
:103730000C94C1EB136304900593C2EB0C03069346
:1037400000F008FA1A9B1B9A0990934269D0002E48
:1037500052D0029D019A95425BDC0AAF86464FF03B
:10376000010B97E8800706E00BF1010B0135019B87
:10377000A646AB422FDB70469AFBF6F499FBF6F1B6
:1037800097FBF6F398FBF6FC2206059C43EA0C2314
:10379000A24442EA0144049A1C43029B9144069AC3
:1037A000AB421744039A9044E0DA7445DCD005F04C
:1037B0005BF8BBF1010FCBEB050105F1FF33089A74
:1037C000079822D004F0CAFB0135019B4FF0010B92
:1037D000A646AB42CFDA204605F046F8BBF1010F12
:1037E00019D0019B089ACBEB03010798013104F033
:1037F000B5FB099805F038F808F0A4F800289FD127
:1038000002F0E6FD11B0BDE8F08F691E04F024FB64
:10381000ACE705F029F8089A0199079804F01CFB19
:10382000E7E7184605F020F8019B089A02990798E7
:1038300004F094FBDDE700BF60010020F0B5144FF9
:1038400083B006460D46144600F000FB3B68684610
:10385000196DDA6C0E441544144433B2ADF80050BF
:10386000ADF80440ADF80230ADF8063008F0C8F904
:1038700050B13B682246314628465B6E1B6898472C
:1038800008F060F80028F4D102F0A2FD03B0F0BD0A
:10389000600100202DE9F04782B004468946924637
:1038A000984600F0D3FA1E4B68461F683E7EFD6CBA
:1038B000013E3F6D2C445544B2B2B944B844A61AF7
:1038C0005119C2EB09034244ADF80060ADF8041091
:1038D000ADF80230ADF8062008F092F9D8B109F140
:1038E000010708F1FF362A464946204604F0B4FA9B
:1038F0002A464146204604F0AFFA32463946204671
:1039000004F004FB32463946284604F0FFFA08F07A
:1039100019F80028E7D102F05BFD02B0BDE8F0879E
:103920006001002070B582B0064614460D4600F0D6
:103930008DFA104B68461A68D36C126D1E441544FC
:10394000144433B2ADF80250ADF80640ADF8003083
:10395000ADF8043008F054F940B12246294630460B
:1039600004F0D4FA07F0EEFF0028F6D102F030FDA3
:1039700002B070BD600100202DE9F0410025124F1A
:10398000124EDFF84C803C681CB1A047041C18BFE5
:10399000012406F0D9F83368002818BF01244BB180
:1039A000984738B1D8F8003013B1012498473CB19A
:1039B0000125E8E7D8F80030002BF7D1002CF7D12B
:1039C0002846BDE8F08100BF985102209C5102209A
:1039D00094510220F0B583B0074616461C460D46AA
:1039E00000F034FA104B68461B68DA6C1B6D174404
:1039F00016441D441C44ADF80070ADF80460ADF8E9
:103A00000250ADF8064008F0FBF848B123463246B4
:103A10002946384604F0A2FA07F094FF0028F5D1B1
:103A200002F0D6FC03B0F0BD60010020002850D0A9
:103A3000C388013B10B5848880681F2B47D8DFE816
:103A400003F0162346314646463C46464646464621
:103A5000464046464646464646464646464646460C
:103A60004610A31002FB031150F8210010BD02FB09
:103A700004F200EBD104C843A35C00F0070023FA72
:103A800000F000F0010010BD02FB04F200EB910415
:103A90006FEA4100A35C00F0060023FA00F000F09A
:103AA000030010BD02FB04F200EB5104CB07A05C45
:103AB0004CBF00F00F00000910BD02FB0404605C65
:103AC00010BD631002FB031130F8110010BD00207F
:103AD00010BD7047034B082153F82000C3689B6A50
:103AE000184700BF7451022010B500F0AFF904F080
:103AF00075FA04F043FC044602F06AFC204610BD4F
:103B000010B5044600F0A2F9054B002120461B68C1
:103B1000DB695B689847044602F05AFC204610BDFA
:103B20006001002038B504460D4600F08FF9064BC1
:103B3000294620461B68DB695B689847044602F00B
:103B400047FC204638BD00BF6001002008B106F0E8
:103B50005DB9704710B500F079F904F047FA04F048
:103B60000DFC044602F034FC204610BD012801D9AA
:103B700000207047014B53F820007047704E022020
:103B800010B500F063F9034B1B681C7C02F020FCAD
:103B9000204610BD6001002010B500F057F9044B1D
:103BA0001B68DB695C7E02F013FC204610BD00BF81
:103BB0006001002070B504460E46154600F046F937
:103BC000204631462A4604F0AFFA044610B10023DD
:103BD00033602B6002F0FCFB204670BD38B5054613
:103BE0000C4600F033F9064A064BB2F90020B3F94F
:103BF00000302A602360BDE8384002F0E9BB00BF16
:103C00005E5102206051022010B5044603F07CFB97
:103C100001462046BDE8104003F00EBB0FF0E4BBA8
:103C2000044B3422352061219A701870184619719E
:103C3000DA7070474801002010B500F007F90F4B0B
:103C40001A68938D03F00C03082B08D00C2B06D0B8
:103C5000042B0BD0002402F0BBFB204610BDD3691F
:103C60001C7E02F0B5FB6408204610BDD3691C7EA3
:103C700002F0AEFB013C204610BD00BF60010020F9
:103C8000024B53F820301B691868704774510220AA
:103C9000024B53F820301B6958687047745102205A
:103CA00038B505460C4600F0D1F8044B1B685D841E
:103CB0009C8402F08DFB002038BD00BF6001002015
:103CC00090B583B000AF544A534B1B6823F00103F7
:103CD0001360524B1B68C3F30A0340F249429342FC
:103CE0000CBF01230023DAB24C4B1B68C3F30A0359
:103CF00040F251418B420CBF01230023DBB213433E
:103D0000DBB21946454B1B68C3F30A0340F252422B
:103D100093420CBF01230023DBB20B43002B10D0D6
:103D20003F4B01221A6000BF3D4B1B68002BFBD1AB
:103D30003C4B3D4A1A603B4B1B683C4A934218D0AF
:103D4000FEE73B4B1B68C3F30A03B3F58A6F10D140
:103D5000384B01221A6000BF364B1B68002BFBD189
:103D6000354B314A1A60344B1B68304A934200D0BD
:103D7000FEE702F089FD314B2E221A700FF036FB60
:103D80002F480CF013FF0EF0C7FD786004F046FAE0
:103D90000346002B0CBF01230023DCB204F084FA9D
:103DA0000346002B0CBF01230023DBB22343DBB20D
:103DB000002B09D004F048FA044604F08BFA0346BD
:103DC0001946204604F07CFD0021002001F0EEFFA2
:103DD00006F0F8FBFEF77EFA1A4B1B68002B12D098
:103DE0000DE0184B1B681B68002B03D0154B1B689C
:103DF0001B689847134B1B685B68124A1360114B92
:103E00001B68002BEDD1104B01221A707B681846FD
:103E10000C37BD4690BD00BF002000E0002004E04C
:103E20000830024000300240C2A507F4CDB5E8B525
:103E30000010005C084C0258004C02585C510220F3
:103E4000A84D0220204E02206C5102202DE9F041A5
:103E5000224D6B6823B10FF0C5FAAB68984204D0CD
:103E60000FF0D8FA0FF0BEFAA8606B680133012B8F
:103E70006B6001D0BDE8F081194F3B68002B28DD55
:103E80000024264605E03AB301363B687C349E4266
:103E90001FDA0FF0A7FA2B681A5923449042F2D187
:103EA0007B68B342E6D0002B10DBC3EB43132A68D8
:103EB00002EB8308FFF7C4F92A680A4B1444C8F8D8
:103EC0007800221DA06F1A60FFF742F97E60BDE8FE
:103ED000F08100242646E3E71860E1E79C4F0220CA
:103EE000F80100206001002010B582B028B9134B02
:103EF0001B681C6E14B902B010BD0446FFF7A6FF84
:103F00002046FEF717FD02AB446943F8080D18463A
:103F1000FEF764FE1CB902F05BFA02B010BD204649
:103F200002ACFEF707FD826844F8040D93689847D9
:103F30002046FEF753FE02F04BFAEEE76001002048
:103F400000B97047014A114600F002B801F0FFFFC6
:103F50002DE9F047DFF8F88084B00C461546064698
:103F6000FFF774FF002001F0E1FED8F80030814631
:103F700030461F6EFEF7DEFC03680090986901F082
:103F80009DFE324B82469C42009B53D01A895B892E
:103F9000013AADF80840013BADF80A5022442B44E9
:103FA000ADF80C20ADF80E3005F0D8FA6846FEF7F3
:103FB00015FE02A807F024FE48BB504601F07EFE25
:103FC000FFF744FF002F3DD0D8F800301B6EB3BB85
:103FD00005F054FC3846FEF7ADFC04ACD8F80030D0
:103FE00044F80C0D1F660068FFF764F82046FEF7E2
:103FF000F5FD04F017FD04F029FC02F0E9F948464C
:1040000001F094FE02F0E4F904B0BDE8F0872A461E
:104010002146304600F0B0FC07F094FC0028CCD0DC
:104020002A462146304600F0A7FC07F08BFC00280A
:10403000EDD1C2E7B3F90440B3F90650A6E701F0A9
:104040002FFEC5E701F02CFED7E700BF01F0FFFF10
:10405000600100202DE9F04385B006469046994660
:104060000F46FFF7F3FE1C4A1C4B1268507C53F8B6
:10407000204001E02468FCB1E3681A68042AF9D101
:10408000DB6A0121204698470546D8B12469A36818
:104090009847013018D00C994B4602944246009143
:1040A00030460195394600F0E3FA044602F090F9F3
:1040B000204605B0BDE8F083FFF7C4F8044648B1D8
:1040C000C368DDE70446F1E70C9B054C43F00103B0
:1040D0000C93E0E72046ECE76001002074510220D9
:1040E0007CF8010800B9704710B582B00446FFF7AC
:1040F000ADFE104B1B681B6E9C4217D02046FEF78E
:1041000019FC4369019063B90068FEF7D1FF01A86B
:10411000FEF764FD2046FEF7C1F902F059F902B03E
:1041200010BD184602F03AF90198EDE701F0B8FD2C
:10413000E4E700BF600100202DE9F04F87B004469E
:1041400092461D468946FFF781FE574B1A68574B2A
:10415000577CDB573846012B40F39A8004F064F813
:104160000646384604F0A6F80746002C00F08D807D
:1041700005A904A8FFF732FD049A059B1644B4F97B
:1041800000201F44B4F9023022EAE272013E23EA21
:10419000E373013F114602921846B4F904200393D9
:1041A0009642D4BFC1EB0601C1EB0201B4F906305F
:1041B00002460E469F42D4BFC2EB0702C2EB030287
:1041C00001361746013705B97D42002E4FDD002F1D
:1041D0004DDD109B3246039900932B460298FFF762
:1041E00039FF8046002848D000F098F887420646FC
:1041F00004D02D4B1B68986C002851D140463D4699
:104200000024DFF8ACB000F095F90EE0AD1BACB9BE
:1042100050463444C847DBF80030FF2003B19847CC
:104220004046FFF78DFEA74212DDAE42EEDD294685
:10423000404600F05FF9AD1B002CE9D0039B4046DF
:1042400002991A1900F0A6F94046FFF74DFEDFE784
:104250004046FFF747FF002000F06CF9B74206D058
:10426000114B1B68986C10B1332108F017FA02F05B
:10427000AFF8002007B0BDE8F08F5046C84702F005
:10428000A7F8012007B0BDE8F08F039402949AE7E5
:1042900003F074FF0646384603F09AFF074664E7CA
:1042A000322108F0FBF9A9E76001002070510220DB
:1042B000E04F022030B5044683B098B1FFF7C6FD49
:1042C0002046FEF737FB036802AD1B6945F8040D75
:1042D0009B68984704F0C6FC04462846FEF77EFC1F
:1042E00002F076F8204603B030BD00BFA0B110B593
:1042F000044682B0FFF7AAFD2046FEF71BFB02AB87
:1043000000F1180443F8040D1846FEF767FC02F0AC
:104310005FF8204602B010BD704700BF10B50446DC
:1043200082B0FFF793FD7CB12046FEF703FB02ABA2
:10433000B0F90A4043F8040D1846FEF74FFC02F0AE
:1043400047F8204602B010BD044B1B681C6E002CC1
:10435000EAD102F03DF8204602B010BD6001002015
:104360002DE9F04F804687B0002758E0002E7ED11F
:1043700005F074FD804500F09A80584B01264946AF
:10438000224602935846564B009601932B4600F066
:104390006FF981464046FEF7CDFA03460590C0F816
:1043A0002490B9F1000F79D0826A05A8DFF840B1F6
:1043B00042F480329A62FEF711FC484600F0BAF8E7
:1043C00082463046474E02F05BF84846FFF78EFFC4
:1043D000454B05FB04F2454C197892003568A84717
:1043E00040462568CBF8008005F0FCFD2060404683
:1043F00008F01CF8002225601046CBF8002002F0DF
:104400003FF8504600F096F84046FEF701FC406A3F
:10441000B0FA80F35B090137042F22DC0BB340466E
:10442000FEF788FA034605A8B3F900B0B3F9029085
:10443000B3F90440B3F90650CBEB04040593C9EB80
:1044400005055E6A0134FEF7C9FB0135002DC8BFC2
:10445000002CD4BF0123002388DC01370020042F67
:10446000DCDD08B100F0D2F807B0BDE8F08F3046CF
:10447000FEF760FA034606A8B3F9065040F8083D77
:10448000B3F90440FEF7AAFBA94501D1A345BBD06F
:104490004A465946304600F07DF8B5E705A8FEF7D4
:1044A0009DFB404607F0C2FF33464846B3E703F0A2
:1044B0009FFE064603F0E2FEB44202DC85427FF72F
:1044C0005CAFB442A8BF34468542A8BF054621462A
:1044D00040462A4606F0D4FF4FE700BF7CF80108AB
:1044E0007479020810020020E44F02209450022048
:1044F0002058022030B50D4683B028B90C4B1B68FC
:104500001C6E14B903B030BD0446FFF79FFC204673
:10451000FEF710FAB0F90A300190AB42C8BF4581EE
:1045200001A8FEF75BFB01F053FF03B030BD00BFF5
:1045300060010020F0B5164F83B00446FFF786FCFB
:104540003B681E6EE4B1C6B905F098F92046FEF747
:10455000F1F902AD3B6845F8040D1C660068FEF7F2
:10456000A9FD2846FEF73AFB04F05CFA04F06EF968
:1045700001F02EFF304603B0F0BD01F091FBE3E700
:1045800001F08EFB01F024FF304603B0F0BD00BF08
:104590006001002070B50D4682B0164628B91A4B4E
:1045A0001B681C6E14B902B070BD044636B22DB241
:1045B000FFF74CFC2046FEF7BDF9C68085800090D1
:1045C00004F044F9009B586930B96846FEF706FBD1
:1045D00001F0FEFE02B070BDFEF7ACF9009B019049
:1045E000B3F90820B3F90A308280C38013B10AB14D
:1045F0000580468001A8FEF7F1FA6846FEF7EEFA5C
:1046000001F0E6FEE6E700BF6001002000B9704758
:1046100070B5044684B0FFF719FC2046FEF78AF90E
:10462000014601A8B1F90460B1F906500A894B8925
:10463000324401912B44ADF80860013AADF80A50BC
:10464000013BADF80C20ADF80E30FEF7C7FA02A81A
:1046500007F0D6FA40B12A463146204600F06EF9FE
:1046600007F070F90028F6D101F0B2FE04B070BD79
:104670002DE9F04FDFF82C8187B082468B46D8F8C1
:10468000000017461E461299437C00221198FEF73F
:1046900049FC00284DD0036905469B68984704F003
:1046A000E1FA00FB07F48146FEF7D8F9109B0734C6
:1046B00013F001034FEAD4043FD0002E2CDD002B71
:1046C00042D004FB06F01830FDF790FE024668B3B6
:1046D0000023029310460392FEF72CF9029A034638
:1046E00006A8A3F804A0A3F806B01F815E81DC60D1
:1046F000C3F810905A6140F8043D1D60FEF76EFA51
:10470000129AD8F800302A61039A1046AA605B7C9E
:10471000AB6107B0BDE8F08F002C34D12046764263
:104720008642A8BF064693B3002ECADC2846FEF791
:10473000BFFC002007B0BDE8F08F0028B8BF0330F1
:10474000801000EB4000B8E700933A4633465946E4
:10475000504601F093FD029004FB06F01830FDF77F
:1047600053FE02460028B5D128460392FEF7A0FC6E
:10477000029B002BDDD01846FDF790FE039A1046F1
:1047800007B0BDE8F08F1838B0FBF4F0C7E700932E
:104790003A4633465946504601F070FD002E0290CD
:1047A000DADCC3E7600100202DE9F04FDFF88091EB
:1047B0008BB05D4BD9F800C0DFF878819CF811E030
:1047C00053F82E40D8F80030D4F810E0002B00F059
:1047D000A6801646DCF8602007460D46002A75D0F4
:1047E000E2681268072A78D0504AC2EB0E02B2FA89
:1047F00082F25209002A70D03846FEF79BF8034631
:104800000AA8B3F908B040F8083DB3F90AA00BEBC9
:104810000504DB68013C0593FEF7E0F9D9F80010C8
:10482000B1F90C30B1F90800E41A002CCCBFC4EB8C
:104830000B045C4685425EDB0023002C43DD0AEB63
:104840000600B1F90EE00138CEEB00000028C8BF29
:10485000C0EB0A0AB1F90A00B04247DC0021BAF104
:10486000000F079306912EDD3846FFF73FFD079BAB
:10487000D9F80020069901FB0B31136E00EB81077C
:10488000002B3CD01846FEF755F802460AA8B2F9AC
:104890000410B2F906306D1A40F8042DF31AA9007D
:1048A000D56801F1180605FB03661644FEF796F974
:1048B0004EB1059B2246009539460193304653463A
:1048C000D8F80040A0470BB0BDE8F08FE26812684E
:1048D000B2FA82F25209002A8ED173463246294634
:1048E00038460DF01FFE0BB0BDE8F08F811B064669
:1048F000C1EB0A0AB3E7431B0546E41A9DE7507C67
:104900004FEA8B02DFF830E03B4602922946CDF8B1
:1049100004A032460094DEF80040A047D3E7734677
:104920000DF000FECFE700BF745102207CF80108B3
:1049300060010020805102207C5102202DE9F041CD
:1049400082B00F4690460646FDF7F4FF034602ACE0
:1049500016211D68002044F8043DEB685B6A984707
:1049600005462046FEF73AF91DB142463946304623
:10497000A84702B0BDE8F08100B970472DE9F04FBB
:10498000A3B08B4692460446FDF7D4FF22AB45699F
:1049900043F81C0D1846FEF721F92046FFF78AFC64
:1049A0000828814640DD002D3ED12046FDF7C2FF9C
:1049B00022AA0346B0F9081042F8100D10460D92D5
:1049C000B3F90A200A9109921968DA680E690B9303
:1049D0000E92FEF703F9924892490068D6F80480D7
:1049E000407C51F820100D692B680C93FFF772F88A
:1049F00008280B9B14D910288BBF202210220427D3
:104A000002270B92AE4200F0F882B9F1200F00F0BD
:104A1000B381B9F1100F00F0458123B0BDE8F08FEC
:104A2000082201270B92EDE70021012320467C4E4E
:104A300020910DF188080B9121930A93FDF77AFFDD
:104A4000074630683A68FB68B7F908101269139393
:104A500014913B69B7F90A10407C0993169148F804
:104A6000147D5568D7F81490FFF734F832680E902B
:104A7000507CFFF70DF907464046FEF7AFF8099A5C
:104A80000A9B082A0B9940F29D80102A13460A912E
:104A90008CBF042302230C93BD4200F0C181336814
:104AA000587CFFF7EDF8149B06469800FDF79EFC36
:104AB00010900028B1D02046FFF718FC0446B9F149
:104AC000000F00F088804846FDF734FF169B1E90CB
:104AD000002B40F3A1810023DDF83880CDF834A00D
:104AE0000B93139BCDF848B0E31815931FAB1946F1
:104AF0000F93836800225B691F920B9A9847159B5E
:104B0000139A04469B1A0E93149B834200F0F6807E
:104B1000099B012B00F08880002842D01CAB119328
:104B20001098FDF707FF099B07461C90082B1F9A5A
:104B300065D90C9BA3460E99824602FB031939F8EE
:104B4000020BA847B047BBF1010B4AF8040BF6D1A2
:104B5000B8F11F0F04D838464246214601F0FAFC4E
:104B60000A9901231F982246059112991C9F084417
:104B70000021019300930391CDF808800D990497CB
:104B800002F0E4FF1198FEF729F81F9B1E981C44C1
:104B90000B9A83680F991F945B6998470446002815
:104BA000BED1159A13990B9B0A44013315920D9AA5
:104BB0000B9301320D92169A9A4200F02D811E98A5
:104BC0000F9996E7012A03D120AB0C920A9363E771
:104BD0000C930A9160E701250A9B139A09990593A2
:104BE00004905846039202915146169B149A0195DF
:104BF000009502F0ABFF1098FDF750FC0DE70C9B01
:104C0000A2460E99814602FB031B1BF8010BA84725
:104C1000B047BAF1010A49F8040BF6D198E700BF92
:104C200060010020745102200028BAD0CDF86080C5
:104C300019960B9F0A9EDDF83880DDF83490DDF878
:104C400048A0DDF83CB017951192DDF87CE02246D3
:104C5000119D01230EF0070049460395012506909A
:104C60000AEB0E00BEF1000F05960295B8BF0EF1DB
:104C7000070E0195009508EBEE0ECDF810E003F05D
:104C8000E3FE1F9B1E983A461C44594683681F94B6
:104C90005B69984704460028D7D1179DDDF86080EE
:104CA000199E7EE70A9B03FB07F0FDF79FFB109020
:104CB00000283FF4B2AEFDF73DFE20902046FDF700
:104CC00039FE00F118031E900E932B69002B00F0A3
:104CD000A6817369002B00F0A281B0F90800800062
:104CE000FDF784FB1190002840F0BA811F900D98C9
:104CF000FDF774FF20A8FDF771FF7CE71098FDF722
:104D000019FE099B81461C90082B149F0446DDF870
:104D100038A028D93AF8020BA847B047013F44F819
:104D2000040BF7D1B8F11F0F04D848464246149936
:104D300001F010FC22AB12980D991A460A9B0593BC
:104D400000230393012352F818EDCDF8088017468D
:104D50000193149A0093CDF810E002F0F7FE384664
:104D6000FDF73CFF1DE71AF8010BA847B047013FCC
:104D700044F8040BF7D1D5E70A9B07FB03F0FDF7D6
:104D800035FB0E9000283FF448AEFDF7D3FD209090
:104D90002046FDF7CFFD1E902C6900F11808002C6D
:104DA00000F0EB800A9A5C4601260A954FEA8209D8
:104DB0009346CDF83090DDF8249017E0042F21D0F1
:104DC000012F15D00B9B0020209D514602930123FB
:104DD00005905A460390204601969A440096049501
:104DE00002F0B4FEB9F1010900F0E880022FE5D12C
:104DF0000C9D40463B465A46A8440A9D20992D6981
:104E0000A847DFE70C9B40460A9D5A4698442099E4
:104E10003B462D69A847D5E71EA8FDF7DFFEEAE669
:104E20002046FFF763FA8046B9F1000F00F0D48006
:104E30004846FDF77FFD169B1E90002B40F3C8806F
:104E400000261FABCDF834A00125B146DA461F4637
:104E500083683246CDF87C9039465B699847149B4D
:104E60000446834231D0099B012B57D020B30D9BC0
:104E70000B9603EB060B1F9801230C990A9A01FB72
:104E8000008E099E1399504405922246039159467B
:104E9000CDF810E002960195009502F057FE1F9B99
:104EA0001E9839461C440B9A83681F945B69984787
:104EB00004460028DFD10B9E139B01369844169BB5
:104EC000B34240F385801E98C2E7CDF82C80B346EC
:104ED000984600E0A3461E980BF10104394683680A
:104EE00022465B6998478045F4D00A9AC6EB0B03CB
:104EF000DDF82C805046059201330D9ACDF81080D4
:104F00009119139E099A039602920195149A06FB31
:104F100003880095264602F019FED0E70028CBD082
:104F20000D9B0B9603EB060BDDF87CE022460A9EF8
:104F300001230EF007005946059606900AEB0E0075
:104F4000BEF1000F139E0295B8BF0EF1070E039637
:104F5000019508EBEE0E0095CDF810E003F074FD1E
:104F60001F9B1E9839461C440B9A83681F945B69EB
:104F7000984704460028D7D19DE7A1460125099E00
:104F80000123022F51460A9A58460AEB030E00F0FD
:104F9000A981042F00F07D819F4200F052810B9C7B
:104FA000F246CDF814900294209CCDF80C90019517
:104FB0000095049402F0CAFD013EE1D10D98FDF781
:104FC0000DFE20A8FDF70AFE0E98FDF767FA24E50E
:104FD0001EA8FDF703FE20E501240A9B139A0999F8
:104FE000059304905846039202915146169B149AD9
:104FF0000194009402F0AAFD0FE50E9A01241833E3
:1050000000250392514604935846099BCDF8089019
:105010000A9A05950194009402F098FDFDE401259B
:10502000DDF82890099E0123022F51464A46584632
:105030000AEB030E00F0D480042F00F0A0809F4202
:105040006DD0002401950095F246059403940B9CC5
:105050000294209C049402F079FD013EE3D146E6DF
:10506000FDF768FC1F9000283FF441AE0A9A012426
:10507000CDF828B04FEA420990460C95CDF83C9007
:10508000B146DDF838B017E0042F2ED0012F28D01C
:105090000B9B0020209D5146029301230590424620
:1050A00003909A44019400940A98049502F04EFDEE
:1050B000099B013B09932BD0022FE5D1209B1E4673
:1050C0003B4642461F995846D9F81450A8470F9DB1
:1050D00031463B46AB440C9D42461F982D69A8477C
:1050E000D6E7209B1E460223EBE7209B42460F9EFD
:1050F00058461D461F990223B344D9F81460B0479F
:1051000029460C9D3B4642461F982D69A847BFE79C
:105110001FA8FDF763FD1198FDF7C0F9E7E50A9BAD
:10512000444609965D000C9E0C95209DDDF8388064
:10513000DDF8289038F8020BA047B047B9F1010913
:1051400005F8010BF6D10E9D01230B985146AE4692
:105150000C9D02905846AE44209DCDF814909A4480
:105160000A9ACDF80C90019700970495CDF838E095
:1051700002F0ECFC099B013B0993D6D1B7E50A9BF1
:105180000125099644465E000C9F0C96209EDDF892
:105190003880DDF8289038F8020BA047B847B9F1FD
:1051A000010946F8040BF6D10E9E01230B985146D7
:1051B000B6460C9E02905846B644209ECDF81490F8
:1051C0009A440A9ACDF80C90019500950496CDF872
:1051D00038E002F0BBFC099B013B0993D6D186E580
:1051E0000A9B0125099644465E000C9F0C96209E62
:1051F000DDF83880DDF8289038F8020BA047B84772
:10520000B9F1010926F8020BF6D10E9E01230B9885
:105210005146B6460C9E02905846B644209ECDF8A4
:1052200014909A440A9ACDF80C9001950095049632
:10523000CDF838E002F08AFC099B013B0993D6D1F6
:1052400055E595000C9C09960C95209D4646DDF889
:10525000289056F8040BA047B9F1010905F8010B95
:10526000F7D10B980123209E514602905846CDF865
:1052700014909A440A9ACDF80C90019700970496DE
:105280000C9D02F063FC099BA844013B0993DCD10F
:1052900094E60996012596000C9C0C96209E4746A4
:1052A000DDF8289057F8040BA047B9F1010946F83A
:1052B000040BF7D10B980123209F514602905846CA
:1052C000CDF814909A440A9ACDF80C900195009567
:1052D00004970C9E02F03AFC099BB044013B0993F1
:1052E000DCD16BE60996012596000C9C0C96209E5D
:1052F0004746DDF8289057F8040BA047B9F101099B
:1053000026F8020BF7D10B980123209F51460290FB
:105310005846CDF814909A440A9ACDF80C9001950D
:10532000009504970C9E02F011FC099BB044013BD0
:105330000993DCD142E600BF094B1A6A002A18BF64
:10534000002003EB800210B49469002C04DB4FF0C2
:10535000FF3443F8201094615DF8044B704700BFA0
:10536000444E022058B311B30AB3B1F90030F0B57E
:10537000B2F90050B2F902E0B1F902409D42B2F92F
:105380000470B2F90660A8BF1D46B1F90420744547
:10539000B1F90630A8BF7446BA420580B8BF3A4694
:1053A000B3424480B8BF33468280C380F0BD002939
:1053B00008BF11460A684B68026043607047704737
:1053C00078B189B2C38892B270B40688448885885F
:1053D0000E4414441A442944068044808180C280CB
:1053E00070BC704770B4124D04462B686A689342D3
:1053F0000FD0104EB34293E8070014BF0C333C3B70
:1054000084E807002B60207A003070BC18BF0120B0
:105410007047094A934204D013E9070084E8070063
:10542000F1E73C3393E8070084E80700EBE700BFAF
:10543000F0010020804F0220444F0220034B09CB93
:10544000C01AB0FA80F04009704700BFF001002098
:10545000F0B53C4E85B00446336D002B55D03A4A2A
:1054600001AD3A49F36C116094E8070085E8070044
:105470000BB128469847364F3C687B689C4232D037
:10548000B342304A32D09DF80C00A3F10C0113F85E
:1054900004EC8C46864535D18C4233D091423BD0CA
:1054A00002F13C0E11F8042C82423DD0734595E880
:1054B000070083E807000BD00C339C427B600BD0C5
:1054C000B36C0BB12846984700F0A0FC05B0F0BDC6
:1054D0001C4B9C427B60F3D11E4B9C4214BF0C348E
:1054E0003C3C3C60ECE7DFF86CE0DFE79DF80C004B
:1054F00096F8442082421DD106F13C0E744519D025
:105500007146CFE702F13C0ED0E7134B304640F82E
:10551000503F02F0A3F8A2E791F8442001F13C0EBD
:105520008242C3D16346C1E7B34208D0A3F10C0C59
:105530006346BBE795E8070086E80700BCE7054B34
:10554000B4E700BF444F02202C58022079A0000885
:10555000F0010020804F02202D11010810B5FEF748
:1055600075FC0D4A136851688B420FD00B4CA34257
:105570004FF0010493E8030014BF0833503B13605D
:1055800005F0E4FC00F024FF204610BD002400F0EC
:105590001FFF204610BD00BFE8010020384F022049
:1055A000F0B5164C059F2568069CB5F908E0B5F9DD
:1055B0000C607045B8BF7046B242A8BF32469042F8
:1055C0001ADCB5F90A60B5F90E50B142B8BF3146E0
:1055D000AB42A8BF2B468B4203DAF0BD25682DB144
:1055E0002C46E5682D6835F00405F7D1069405973B
:1055F000BDE8F04002F0CCBFF0BD00BF600100206C
:10560000B0F90220B1F906309A4214DCB1F9022057
:10561000B0F906309A420EDCB0F90020B1F904303E
:105620009A4208DCB0F90400B1F900308342CCBFE3
:105630000020012070470020704700BF08B5034BD1
:10564000014674221868FAF770FE08BD6001002058
:1056500000B970472DE9F04F0446ABB00D46164631
:105660001C921B91FEF7F2FB2046FDF763F9B0F99F
:10567000043004689D422790119400F05A81002064
:10568000FEF758FFAE4B119A1B689269597C1F9028
:105690000846279D19928242209118BF5A74B5F985
:1056A0000430B5F9062019460793B5F908301046BD
:1056B00012925B1AB5F90A201C46121A0893164674
:1056C000139222462B8A01329B071A92324602F12C
:1056D00001021D9240F10E811B9B6A695B1A0392C5
:1056E000002B1C9A1493A2EB000440F3A7810993AA
:1056F0004FF0010B0023DDF868901093002C40F36D
:10570000A8811D9B4FF0000A17941693012315934F
:10571000119E8C4BB0691B56012B40F389810023ED
:10572000ADF8A230ADF8A03002F07EFD431EB069A6
:10573000ADF8A43002F0BEFD0138ADF8A600279800
:105740005A4600F1140107F027FF2190002800F0CD
:10575000D08027985A4600F1140107F01DFF2390CE
:10576000002800F0C180279BD868002840F0818184
:10577000169A524500F0B4801A9B10999A00CDF801
:1057800010900AFB0313C4EB0A01D946229005EBE3
:1057900083030D9115990E93129B01FB02F2234492
:1057A0001E9218934FEA8B03D3460593179B139AC7
:1057B0005B45109CCCBF002301235A45B8BF002392
:1057C0000B93129B5B440F93189B5B440A93049BBF
:1057D0001A46A24275D01498079BC0EB040A0E9D8E
:1057E00003440C935A4621460398FEF71FF9030E13
:1057F00006465FD0099B089AA3420799CCBF0023B5
:105800000123A2420C9A214402EB0407BDF9A02017
:10581000B8BF00230691BA420B9903EA01030DDCDD
:10582000BDF9A2200A98824208DCBDF9A420BA4240
:1058300004DBBDF9A620824280F2A9804FF0000867
:10584000002B00F08580BAF1000F09DB0D9B002BC7
:1058500006DB1A4651460398FEF7E8F8030E77D0A8
:10586000BDF9A0309F4223DBBDF9A2300A988342E4
:105870001EDCBDF9A430BB421ADBBDF9A630834261
:1058800016DB3046304B229EFF221B6846F07F41DC
:105890009847199A2D4B53F822301B691B6898477B
:1058A000219B02460A9900933846119B0CF0DEFAC0
:1058B000C5F82080059B4C44CA441D44049BA34268
:1058C00090D10E9B1E99159A0B4493440E930D9BF9
:1058D0001946169B11445B450D917FF467AF279BDA
:1058E000239918680BF08AFF279B219918680BF001
:1058F00085FF279D1B991A9B1C980B44A980421E6B
:105900001D99013BE8800A442B81199B6A81194645
:10591000209A914202D00A4B1B685A741F98FEF7D6
:1059200009FE27A8FDF75AF900F052FD2BB0BDE89B
:10593000F08FB0F906309E427FF4A1AEF1E700BFD0
:105940006001002070510220680100207451022083
:10595000BDF9A030069A934284DCBDF9A2200F98CD
:1059600082423FF77FAFBDF9A42006998A42FFF635
:1059700079AFBDF9A62001468242FFF673AF239BA3
:105980002A6A06980093119B0CF070FA68E7DDF81C
:105990009C80B8F90420BA422FDCB8F90810B9424B
:1059A0002BDBB8F906E00146864526DCB8F90A008B
:1059B000884222DBD8F81400F8B12593BB1A1946A7
:1059C00022930A9BCEEB03031A462493FEF72EF88C
:1059D000030E259B11D0B8F90410B8F90820521A0B
:1059E000249902FB011222990A4408EB8208D8F894
:1059F000202042F07F4090460FE0119A1068002866
:105A000033D0D0F80CE039460A9ADEF8148022939D
:105A1000C047229B804640F07F402493199A9A4BBE
:105A200053F82220126952689047249B229007E77E
:105A3000F368304628A91B6B984780E60022089B34
:105A40004FF0FF390992149ACB46109313440893F0
:105A500054E6139900224FF0FF3317920A4616932B
:105A60008A4622441593139252E680464FF07F40B7
:105A7000D3E7FCF75FFF169B2690534500F0998013
:105A80001A9B10999A00CDF810900AFB0313C4EBEF
:105A90000A01D9460D9105EB830312990F934FEA42
:105AA0008B032144D346059318911599079B01FB5D
:105AB00002F22292149A13440C93179B139A5B459B
:105AC000CCBF002301235A45109AB8BF00230B9383
:105AD000129B5B441E93189B5B440A93049B934266
